S0160000484434343738305F6472697665722E7372656390
S214080000F82507206507080061070800610708004B
S2140800106107080061070800610708000000000083
S2140800200000000000000000000000006107080053
S2140800306107080000000000610708006107080063
S21408004061070800610708006107080061070800E3
S21408005061070800610708006107080061070800D3
S214080060610708006107080000000000D1050800C5
S214080070E5050800F90508000D0608000000000060
S2140800800000000061070800610708006107080013
S2140800906107080061070800610708006107080093
S2140800A061070800000000006107080061070800F3
S2140800B06107080061070800610708006107080073
S2140800C06107080061070800610708006107080063
S2140800D06107080061070800610708006107080053
S2140800E06107080061070800610708006107080043
S2140800F06107080010B5054C237833B9044B13B1D3
S2140801000448AFF300800123237010BD680507205C
S21408011000000000BC0A0800084B10B51BB10848D0
S2140801200849AFF300800848036803B910BD074BB9
S214080130002BFBD0BDE81040184700BF00000000A9
S214080140BC0A08006C050720BC0A0800000000006E
S2140801500222134B1A6310F0010F4FF0010212BF70
S2140801601A630F4B5A6310F0020F4FF400420D4B00
S21408017014BF1A635A6310F0040F4FF48042094BF9
S21408018014BF1A635A6310F0080F4FF08062064BCC
S21408019014BF1A635A630222014B5A63704700BFA2
S2140801A000140E40000E0E4000100E4038B50546EE
S2140801B00422064B5A6300F00F00054CA047280996
S2140801C0A04742F6E060034B984738BD00140E403F
S2140801D05101080001000720F8B50B20224CA04763
S2140801E00C20A0470D20A0470E20A0471F4B012239
S2140801F01A61C3F8A0201E4A4FF400411161C2F8E4
S214080200A0104FF480411161C2F8A01002F50072E8
S2140802104FF080611161C2F8A01002211961C3F87D
S214080220A01004221A61C3F8A02059635A63114823
S214080230114B984703242746104E0F4D3846B047B3
S21408024047F23050A847013CF8D102200B4B98479C
S21408025028200B4CA0470820A0470120A0470620CE
S214080260A0470F20A047F8BD0D07080000140E4051
S214080270000E0E40C02709000100072051010800A3
S214080280AD01080010B50E480E4B984700203E21D9
S2140802900D4B98470D4CA0470028FCD00C4B9847B0
S2140802A00C4A0D4B9A620D4CA0470028FCD0102033
S2140802B00B4B98470B4B98470148024B984710BD85
S2140802C000BD0105B100072089060800DD06080004
S2140802D0ED060800013F0D2000060E40FD0608004A
S2140802E0210608001508080010B54FF40042164B02
S2140802F05A600B20154CA0470C20A0470D20A0479D
S2140803000E20A0473B204FF06051114CA0475520C7
S2140803104FF06051A04756204FF06051A047682024
S2140803200C49A0475C200C49A0470C484FF4407184
S2140803300B4A0C4B98472B204FF00061A0472A2009
S2140803404FF00061A04710BD501A0E400D07080078
S2140803500D0408007900002801000028000E0E4051
S21408036001000008E10408004264B1F1805F16D07D
S21408037004D8C1B1B1F1006F0AD013E0B1F1405F03
S21408038011D0B1F1605F0ED0B1F1205F0AD170478D
S214080390036F016F0B4023EA0203036702E0036F53
S2140803A01343036742607047416412F0010F14BF9D
S2140803B04166016612F00A0F14BF0162416212F02C
S2140803C0020F02D0C0F8801004E012F0080F18BF21
S2140803D0C0F8841041610160704700BF10B44164E2
S2140803E0019C0CB1416600E001660BB1016500E0B6
S2140803F041650AB1016300E04163016101605DF88F
S214080400044B7047C06C7047806C704770B582B0FC
S2140804100D46430903F5001303F207735C0201F067
S214080420F043B3F1205F30D006D8B3F1006F0AD09E
S214080430B3F1805F18D049E0B3F1405F30D0B3F134
S214080440605F2DD042E000F01F000126864020465F
S2140804504FF0006132461F4B984715F0010F14BF46
S21408046066662666012032E000F01F0001268640F8
S21408047020464FF080513246164B984715F0010F2C
S21408048014BF66662666012021E000F01F030126D9
S214080490204606FA03F12A460F4B9847304616E0E0
S2140804A000F01F03012605F0605205EA06010091D8
S2140804B0204606FA03F1B2F1605F14BF002201225B
S2140804C0C5F38003054CA047304600E0002002B084
S2140804D070BD00BF69030800A9030800DD03080013
S2140804E070B582B006460D46144602F0F043B3F1E6
S2140804F0205F26D006D8B3F1006F0AD0B3F1805F2C
S21408050013D034E0B3F1405F1FD0B3F1605F1CD066
S2140805102DE04FF000612A46164B984714F0010F5D
S21408052014BF75663566012022E04FF080512A46D2
S214080530104B984714F0010F14BF756635660120F6
S21408054016E00D4B9847012012E004F0605204F0C4
S2140805500103009330462946B2F1605F14BF0022BB
S2140805600122C4F38003054CA047012000E00020C8
S21408057002B070BD69030800A9030800DD0308007F
S2140805802DE9F041044688460E4B98470546204616
S2140805900D4B9847054013D00C4C04F160062368B1
S2140805A0434508D16168294205D0E3684046984724
S2140805B0636825EA0305B44202D01034002DEED154
S2140805C0BDE8F08105040800090408008405072032
S2140805D008B502480B21024B984708BD000E0E408E
S2140805E08105080008B502480C21024B984708BD4B
S2140805F000100E408105080008B502480D21024B80
S214080600984708BD00120E408105080008B5024844
S2140806100E21024B984708BD00140E4081050800BD
S214080620184A136B23F0700318431063936E13F085
S214080630080F03D009E0013B03D11EE04FF4006326
S21408064010498A6E12F0080FF5D00E4A136B23F085
S214080650030343F002031363906E10F0080004D0FF
S21408066000207047013B03D109E04FF400630549B9
S2140806708A6E12F0080FF5D07047012070470120E7
S214080680704700BF00060E4038B111490B6A114A80
S2140806901A40114B13430B6270470D4A136A23F432
S2140806A05C1323F0030343F45C1343F001030902CD
S2140806B089B20B431362936E13F0010FFBD0044A02
S2140806C0136A43F09B7343F480331362704700BF8A
S2140806D000060E40FCFFC8FE02003701024B986E6B
S2140806E000F48030704700BF00060E404FF00052FE
S2140806F0014B9A62704700BF00060E40024B986E88
S21408070000F00200704700BF00060E402C281ED8D6
S2140807101F280CD8114B9A69012383401A4093422C
S21408072017D0012383400D4A1361002070470B4BF6
S214080730D3F808212038012383401A4093420AD070
S21408074001238340054AC2F8003100207047012083
S2140807507047002070470020704700BF00060E4014
S214080760FEE700BF08B51F4B1F4A9A4203D01F4B2F
S2140807701C4A9A4204D31E4B1E4A9A4210D31BE0C8
S21408078018490A1D1C4B9B1A23F003030433164A08
S214080790134452F8040B41F8040B9A42F9D1EAE7DD
S2140807A0164B174AD21A22F003021A44043B0021B9
S2140807B043F8041B9342FBD1124B23F0604222F00D
S2140807C07F0211498A6003F16043B3F5801F03D2A4
S2140807D08B6843F000538B600C4B98470C4B98473C
S2140807E0FEE700BF00000720BC0A080068050720CF
S2140807F0F4050720680507206B0507206C05072009
S214080800F70507200000080000ED00E05109080081
S214080810310908003E4B1B6B03F00303032B5FD81C
S214080820DFE803F0020E2B2B3A4B5B6913F0800FC0
S21408083014BF4FF400424FF4FA42374B1A604FE0A9
S214080840334B1B6A13F0807F03D0344A324B1A604E
S21408085046E0334A304B1A602D4B1B6A03F0700390
S214080860102B02D0202B04D03AE02E4A2A4B1A60CE
S21408087036E02A4A284B1A6032E0254B1B6A13F0EA
S214080880807F03D0254A244B1A6012E0244A224B64
S2140808901A601F4B1B6A03F07003102B02D0202B24
S2140808A004D006E01F4A1C4B1A6002E01B4A1A4B8B
S2140808B01A60174B1B6B03F00303022B0DD1144A67
S2140808C0936A926A1448C3F30A41036801FB033328
S2140808D0D2B2B3FBF2F3036002E0134A0E4B1A607F
S2140808E00B4B1B6B03F07003702B07D10A4A136877
S2140808F00E49A1FB03135B0813607047044B1A6B81
S2140809000549C2F302120B68D3400B60704700BF5C
S21408091000060E40101A0E4038010720001BB700CC
S21408092000093D0000127A00001C4E0EABAAAAAAC7
S21408093008B5044B9847044B9847044B9847002043
S21408094008BD00BF85020800E9020800D9010800B2
S21408095070B50F4E0F4D761BB61018BF002405D085
S214080960013455F8043B9847A642F9D10A4E0B4D78
S21408097000F092F8761BB61018BF002406D0013493
S21408098055F8043B9847A642F9D170BD70BD00BF24
S214080990A40A0800A40A0800AC0A0800A40A08006A
S2140809A0024B13B1024800F005B87047000000007B
S2140809B0C1090800014600200246034600F016B8A2
S2140809C038B5084B084DED1AAC1018BFED1805D011
S2140809D0013C55F8043D9847002CF9D1BDE838404D
S2140809E000F064B8B80A0800BC0A08002DE9F04709
S2140809F0254C064625688846D5F8484192469946C5
S214080A00C4B360681F2817DC411C76B104EB80036A
S214080A10C3F888A0D4F88851012282401543022ED4
S214080A20C4F88851C3F808911ED0831C6160002062
S214080A3044F82380BDE8F087144B03B34FF4C8701E
S214080A40AFF300800446D0B1D5F84831002784E8D3
S214080A5088003846C5F848410121C4F88871C4F8AA
S214080A608C71002EE1D0D1E7D4F88C311A43C4F843
S214080A708C21DAE705F5A674C5F84841C1E74FF0BA
S214080A80FF30BDE8F08700BF940A080000000000A9
S214080A904300000040010720F8B500BFF8BC08BCBA
S214080AA09E467047A109080019010800F8B500BF5E
S210080AB0F8BC08BC9E467047F50008001D
S214080ABCBFF35F8F0138FBD1704700BF4FF48063DC
S214080ACC204A136002F5007213601F4B1B6A13F062
S214080ADC807F07D11D4A1C4B1A621A46936E13F078
S214080AEC010FFBD01A4A184B1A621A46936E13F467
S214080AFC803FFBD0144A136B23F0030343F0010327
S214080B0C1363936E13F0080FFBD0124A0E4B9A62BF
S214080B1C1A46936E13F0020FFBD011220A4B1A6377
S214080B2C1A46936E13F0080FFBD01222064B1A6364
S214080B3C1A46936E13F0080FFBD0074A074B1A6039
S214080B4C704700BF000A0E4000060E400908370022
S214080B5C09083701013F0D2000BD010538010720A3
S214080B6C1B4B984206D800231A4A136002F50072EB
S214080B7C13607047184B984207D84FF48073154A81
S214080B8C136002F5007213607047144B984207D82E
S214080B9C4FF400730F4A136002F500721360704727
S214080BAC0F4B984207D84FF440730A4A136002F565
S214080BBC0072136070470B4B984294BF4FF48063D7
S214080BCC4FF4A063034A136002F500721360704773
S214080BDCBFEA2101000A0E407FF0FA02FF8FD0030D
S214080BECFFB3C4047F4A5D0500093D000000000001
S214080BFC000000002C04072094040720FC0407209F
S214080C0C00000000000000000000000000000000CB
S214080C1C00000000000000000000000000000000BB
S214080C2C00000000900A0800000000000000000009
S214080C3C000000000000000000000000000000009B
S214080C4C000000000000000000000000000000008B
S214080C5C000000000000000000000000000000007B
S214080C6C000000000000000000000000000000006B
S214080C7C000000000000000000000000000000005B
S214080C8C000000000000000000000000000000004B
S214080C9C000000000000000001000000000000003A
S214080CAC0E33CDAB34126DE6ECDE05000B000000FF
S214080CBC000000000000000000000000000000001B
S214080CCC000000000000000000000000000000000B
S214080CDC00000000000000000000000000000000FB
S214080CEC00000000000000000000000000000000EB
S80408076587
